{
  "contractName": "MarsBaseExchange",
  "abi": [
    {
      "anonymous": false,
      "inputs": [
        {
          "indexed": false,
          "internalType": "uint256",
          "name": "offerId",
          "type": "uint256"
        },
        {
          "components": [
            {
              "internalType": "uint256",
              "name": "offerId",
              "type": "uint256"
            },
            {
              "internalType": "enum MarsBaseExchange.OfferType",
              "name": "offerType",
              "type": "uint8"
            },
            {
              "internalType": "contract IERC20",
              "name": "tokenAlice",
              "type": "address"
            },
            {
              "internalType": "address[]",
              "name": "tokenBob",
              "type": "address[]"
            },
            {
              "internalType": "uint256",
              "name": "amountAlice",
              "type": "uint256"
            },
            {
              "internalType": "uint256[]",
              "name": "amountBob",
              "type": "uint256[]"
            },
            {
              "internalType": "uint256",
              "name": "feeAlice",
              "type": "uint256"
            },
            {
              "internalType": "uint256",
              "name": "feeBob",
              "type": "uint256"
            },
            {
              "internalType": "uint256",
              "name": "smallestChunkSize",
              "type": "uint256"
            },
            {
              "internalType": "uint256",
              "name": "amountRemaining",
              "type": "uint256"
            },
            {
              "internalType": "uint256",
              "name": "minimumSize",
              "type": "uint256"
            },
            {
              "internalType": "uint256[]",
              "name": "minimumOrderAmountsAlice",
              "type": "uint256[]"
            },
            {
              "internalType": "uint256[]",
              "name": "minimumOrderAmountsBob",
              "type": "uint256[]"
            },
            {
              "internalType": "address[]",
              "name": "minimumOrderAddresses",
              "type": "address[]"
            },
            {
              "internalType": "address[]",
              "name": "minimumOrderTokens",
              "type": "address[]"
            },
            {
              "internalType": "uint256",
              "name": "deadline",
              "type": "uint256"
            },
            {
              "internalType": "address",
              "name": "offerer",
              "type": "address"
            },
            {
              "internalType": "address",
              "name": "payoutAddress",
              "type": "address"
            },
            {
              "internalType": "bool[]",
              "name": "capabilities",
              "type": "bool[]"
            },
            {
              "internalType": "bool",
              "name": "active",
              "type": "bool"
            }
          ],
          "indexed": false,
          "internalType": "struct MarsBaseExchange.MBOffer",
          "name": "offer",
          "type": "tuple"
        }
      ],
      "name": "OfferAccepted",
      "type": "event"
    },
    {
      "anonymous": false,
      "inputs": [
        {
          "indexed": false,
          "internalType": "uint256",
          "name": "offerId",
          "type": "uint256"
        },
        {
          "components": [
            {
              "internalType": "uint256",
              "name": "offerId",
              "type": "uint256"
            },
            {
              "internalType": "enum MarsBaseExchange.OfferType",
              "name": "offerType",
              "type": "uint8"
            },
            {
              "internalType": "contract IERC20",
              "name": "tokenAlice",
              "type": "address"
            },
            {
              "internalType": "address[]",
              "name": "tokenBob",
              "type": "address[]"
            },
            {
              "internalType": "uint256",
              "name": "amountAlice",
              "type": "uint256"
            },
            {
              "internalType": "uint256[]",
              "name": "amountBob",
              "type": "uint256[]"
            },
            {
              "internalType": "uint256",
              "name": "feeAlice",
              "type": "uint256"
            },
            {
              "internalType": "uint256",
              "name": "feeBob",
              "type": "uint256"
            },
            {
              "internalType": "uint256",
              "name": "smallestChunkSize",
              "type": "uint256"
            },
            {
              "internalType": "uint256",
              "name": "amountRemaining",
              "type": "uint256"
            },
            {
              "internalType": "uint256",
              "name": "minimumSize",
              "type": "uint256"
            },
            {
              "internalType": "uint256[]",
              "name": "minimumOrderAmountsAlice",
              "type": "uint256[]"
            },
            {
              "internalType": "uint256[]",
              "name": "minimumOrderAmountsBob",
              "type": "uint256[]"
            },
            {
              "internalType": "address[]",
              "name": "minimumOrderAddresses",
              "type": "address[]"
            },
            {
              "internalType": "address[]",
              "name": "minimumOrderTokens",
              "type": "address[]"
            },
            {
              "internalType": "uint256",
              "name": "deadline",
              "type": "uint256"
            },
            {
              "internalType": "address",
              "name": "offerer",
              "type": "address"
            },
            {
              "internalType": "address",
              "name": "payoutAddress",
              "type": "address"
            },
            {
              "internalType": "bool[]",
              "name": "capabilities",
              "type": "bool[]"
            },
            {
              "internalType": "bool",
              "name": "active",
              "type": "bool"
            }
          ],
          "indexed": false,
          "internalType": "struct MarsBaseExchange.MBOffer",
          "name": "offer",
          "type": "tuple"
        }
      ],
      "name": "OfferCancelled",
      "type": "event"
    },
    {
      "anonymous": false,
      "inputs": [
        {
          "indexed": false,
          "internalType": "uint256",
          "name": "offerId",
          "type": "uint256"
        },
        {
          "components": [
            {
              "internalType": "uint256",
              "name": "offerId",
              "type": "uint256"
            },
            {
              "internalType": "enum MarsBaseExchange.OfferType",
              "name": "offerType",
              "type": "uint8"
            },
            {
              "internalType": "contract IERC20",
              "name": "tokenAlice",
              "type": "address"
            },
            {
              "internalType": "address[]",
              "name": "tokenBob",
              "type": "address[]"
            },
            {
              "internalType": "uint256",
              "name": "amountAlice",
              "type": "uint256"
            },
            {
              "internalType": "uint256[]",
              "name": "amountBob",
              "type": "uint256[]"
            },
            {
              "internalType": "uint256",
              "name": "feeAlice",
              "type": "uint256"
            },
            {
              "internalType": "uint256",
              "name": "feeBob",
              "type": "uint256"
            },
            {
              "internalType": "uint256",
              "name": "smallestChunkSize",
              "type": "uint256"
            },
            {
              "internalType": "uint256",
              "name": "amountRemaining",
              "type": "uint256"
            },
            {
              "internalType": "uint256",
              "name": "minimumSize",
              "type": "uint256"
            },
            {
              "internalType": "uint256[]",
              "name": "minimumOrderAmountsAlice",
              "type": "uint256[]"
            },
            {
              "internalType": "uint256[]",
              "name": "minimumOrderAmountsBob",
              "type": "uint256[]"
            },
            {
              "internalType": "address[]",
              "name": "minimumOrderAddresses",
              "type": "address[]"
            },
            {
              "internalType": "address[]",
              "name": "minimumOrderTokens",
              "type": "address[]"
            },
            {
              "internalType": "uint256",
              "name": "deadline",
              "type": "uint256"
            },
            {
              "internalType": "address",
              "name": "offerer",
              "type": "address"
            },
            {
              "internalType": "address",
              "name": "payoutAddress",
              "type": "address"
            },
            {
              "internalType": "bool[]",
              "name": "capabilities",
              "type": "bool[]"
            },
            {
              "internalType": "bool",
              "name": "active",
              "type": "bool"
            }
          ],
          "indexed": false,
          "internalType": "struct MarsBaseExchange.MBOffer",
          "name": "offer",
          "type": "tuple"
        }
      ],
      "name": "OfferCreated",
      "type": "event"
    },
    {
      "anonymous": false,
      "inputs": [
        {
          "indexed": false,
          "internalType": "uint256",
          "name": "offerId",
          "type": "uint256"
        },
        {
          "components": [
            {
              "internalType": "uint256",
              "name": "offerId",
              "type": "uint256"
            },
            {
              "internalType": "enum MarsBaseExchange.OfferType",
              "name": "offerType",
              "type": "uint8"
            },
            {
              "internalType": "contract IERC20",
              "name": "tokenAlice",
              "type": "address"
            },
            {
              "internalType": "address[]",
              "name": "tokenBob",
              "type": "address[]"
            },
            {
              "internalType": "uint256",
              "name": "amountAlice",
              "type": "uint256"
            },
            {
              "internalType": "uint256[]",
              "name": "amountBob",
              "type": "uint256[]"
            },
            {
              "internalType": "uint256",
              "name": "feeAlice",
              "type": "uint256"
            },
            {
              "internalType": "uint256",
              "name": "feeBob",
              "type": "uint256"
            },
            {
              "internalType": "uint256",
              "name": "smallestChunkSize",
              "type": "uint256"
            },
            {
              "internalType": "uint256",
              "name": "amountRemaining",
              "type": "uint256"
            },
            {
              "internalType": "uint256",
              "name": "minimumSize",
              "type": "uint256"
            },
            {
              "internalType": "uint256[]",
              "name": "minimumOrderAmountsAlice",
              "type": "uint256[]"
            },
            {
              "internalType": "uint256[]",
              "name": "minimumOrderAmountsBob",
              "type": "uint256[]"
            },
            {
              "internalType": "address[]",
              "name": "minimumOrderAddresses",
              "type": "address[]"
            },
            {
              "internalType": "address[]",
              "name": "minimumOrderTokens",
              "type": "address[]"
            },
            {
              "internalType": "uint256",
              "name": "deadline",
              "type": "uint256"
            },
            {
              "internalType": "address",
              "name": "offerer",
              "type": "address"
            },
            {
              "internalType": "address",
              "name": "payoutAddress",
              "type": "address"
            },
            {
              "internalType": "bool[]",
              "name": "capabilities",
              "type": "bool[]"
            },
            {
              "internalType": "bool",
              "name": "active",
              "type": "bool"
            }
          ],
          "indexed": false,
          "internalType": "struct MarsBaseExchange.MBOffer",
          "name": "offer",
          "type": "tuple"
        }
      ],
      "name": "OfferModified",
      "type": "event"
    },
    {
      "anonymous": false,
      "inputs": [
        {
          "indexed": false,
          "internalType": "uint256",
          "name": "offerId",
          "type": "uint256"
        },
        {
          "components": [
            {
              "internalType": "uint256",
              "name": "offerId",
              "type": "uint256"
            },
            {
              "internalType": "enum MarsBaseExchange.OfferType",
              "name": "offerType",
              "type": "uint8"
            },
            {
              "internalType": "contract IERC20",
              "name": "tokenAlice",
              "type": "address"
            },
            {
              "internalType": "address[]",
              "name": "tokenBob",
              "type": "address[]"
            },
            {
              "internalType": "uint256",
              "name": "amountAlice",
              "type": "uint256"
            },
            {
              "internalType": "uint256[]",
              "name": "amountBob",
              "type": "uint256[]"
            },
            {
              "internalType": "uint256",
              "name": "feeAlice",
              "type": "uint256"
            },
            {
              "internalType": "uint256",
              "name": "feeBob",
              "type": "uint256"
            },
            {
              "internalType": "uint256",
              "name": "smallestChunkSize",
              "type": "uint256"
            },
            {
              "internalType": "uint256",
              "name": "amountRemaining",
              "type": "uint256"
            },
            {
              "internalType": "uint256",
              "name": "minimumSize",
              "type": "uint256"
            },
            {
              "internalType": "uint256[]",
              "name": "minimumOrderAmountsAlice",
              "type": "uint256[]"
            },
            {
              "internalType": "uint256[]",
              "name": "minimumOrderAmountsBob",
              "type": "uint256[]"
            },
            {
              "internalType": "address[]",
              "name": "minimumOrderAddresses",
              "type": "address[]"
            },
            {
              "internalType": "address[]",
              "name": "minimumOrderTokens",
              "type": "address[]"
            },
            {
              "internalType": "uint256",
              "name": "deadline",
              "type": "uint256"
            },
            {
              "internalType": "address",
              "name": "offerer",
              "type": "address"
            },
            {
              "internalType": "address",
              "name": "payoutAddress",
              "type": "address"
            },
            {
              "internalType": "bool[]",
              "name": "capabilities",
              "type": "bool[]"
            },
            {
              "internalType": "bool",
              "name": "active",
              "type": "bool"
            }
          ],
          "indexed": false,
          "internalType": "struct MarsBaseExchange.MBOffer",
          "name": "offer",
          "type": "tuple"
        }
      ],
      "name": "OfferPartiallyAccepted",
      "type": "event"
    },
    {
      "anonymous": false,
      "inputs": [
        {
          "indexed": true,
          "internalType": "address",
          "name": "previousOwner",
          "type": "address"
        },
        {
          "indexed": true,
          "internalType": "address",
          "name": "newOwner",
          "type": "address"
        }
      ],
      "name": "OwnershipTransferred",
      "type": "event"
    },
    {
      "inputs": [
        {
          "internalType": "uint256",
          "name": "",
          "type": "uint256"
        }
      ],
      "name": "offers",
      "outputs": [
        {
          "internalType": "uint256",
          "name": "offerId",
          "type": "uint256"
        },
        {
          "internalType": "enum MarsBaseExchange.OfferType",
          "name": "offerType",
          "type": "uint8"
        },
        {
          "internalType": "contract IERC20",
          "name": "tokenAlice",
          "type": "address"
        },
        {
          "internalType": "uint256",
          "name": "amountAlice",
          "type": "uint256"
        },
        {
          "internalType": "uint256",
          "name": "feeAlice",
          "type": "uint256"
        },
        {
          "internalType": "uint256",
          "name": "feeBob",
          "type": "uint256"
        },
        {
          "internalType": "uint256",
          "name": "smallestChunkSize",
          "type": "uint256"
        },
        {
          "internalType": "uint256",
          "name": "amountRemaining",
          "type": "uint256"
        },
        {
          "internalType": "uint256",
          "name": "minimumSize",
          "type": "uint256"
        },
        {
          "internalType": "uint256",
          "name": "deadline",
          "type": "uint256"
        },
        {
          "internalType": "address",
          "name": "offerer",
          "type": "address"
        },
        {
          "internalType": "address",
          "name": "payoutAddress",
          "type": "address"
        },
        {
          "internalType": "bool",
          "name": "active",
          "type": "bool"
        }
      ],
      "stateMutability": "view",
      "type": "function"
    },
    {
      "inputs": [],
      "name": "owner",
      "outputs": [
        {
          "internalType": "address",
          "name": "",
          "type": "address"
        }
      ],
      "stateMutability": "view",
      "type": "function"
    },
    {
      "inputs": [],
      "name": "renounceOwnership",
      "outputs": [],
      "stateMutability": "nonpayable",
      "type": "function"
    },
    {
      "inputs": [
        {
          "internalType": "address",
          "name": "newOwner",
          "type": "address"
        }
      ],
      "name": "transferOwnership",
      "outputs": [],
      "stateMutability": "nonpayable",
      "type": "function"
    },
    {
      "inputs": [],
      "name": "setCurrentTime",
      "outputs": [],
      "stateMutability": "nonpayable",
      "type": "function"
    },
    {
      "inputs": [
        {
          "internalType": "uint256",
          "name": "_minimumFee",
          "type": "uint256"
        }
      ],
      "name": "setMinimumFee",
      "outputs": [],
      "stateMutability": "nonpayable",
      "type": "function"
    },
    {
      "inputs": [
        {
          "internalType": "uint256",
          "name": "offerId",
          "type": "uint256"
        }
      ],
      "name": "getOffer",
      "outputs": [
        {
          "components": [
            {
              "internalType": "uint256",
              "name": "offerId",
              "type": "uint256"
            },
            {
              "internalType": "enum MarsBaseExchange.OfferType",
              "name": "offerType",
              "type": "uint8"
            },
            {
              "internalType": "contract IERC20",
              "name": "tokenAlice",
              "type": "address"
            },
            {
              "internalType": "address[]",
              "name": "tokenBob",
              "type": "address[]"
            },
            {
              "internalType": "uint256",
              "name": "amountAlice",
              "type": "uint256"
            },
            {
              "internalType": "uint256[]",
              "name": "amountBob",
              "type": "uint256[]"
            },
            {
              "internalType": "uint256",
              "name": "feeAlice",
              "type": "uint256"
            },
            {
              "internalType": "uint256",
              "name": "feeBob",
              "type": "uint256"
            },
            {
              "internalType": "uint256",
              "name": "smallestChunkSize",
              "type": "uint256"
            },
            {
              "internalType": "uint256",
              "name": "amountRemaining",
              "type": "uint256"
            },
            {
              "internalType": "uint256",
              "name": "minimumSize",
              "type": "uint256"
            },
            {
              "internalType": "uint256[]",
              "name": "minimumOrderAmountsAlice",
              "type": "uint256[]"
            },
            {
              "internalType": "uint256[]",
              "name": "minimumOrderAmountsBob",
              "type": "uint256[]"
            },
            {
              "internalType": "address[]",
              "name": "minimumOrderAddresses",
              "type": "address[]"
            },
            {
              "internalType": "address[]",
              "name": "minimumOrderTokens",
              "type": "address[]"
            },
            {
              "internalType": "uint256",
              "name": "deadline",
              "type": "uint256"
            },
            {
              "internalType": "address",
              "name": "offerer",
              "type": "address"
            },
            {
              "internalType": "address",
              "name": "payoutAddress",
              "type": "address"
            },
            {
              "internalType": "bool[]",
              "name": "capabilities",
              "type": "bool[]"
            },
            {
              "internalType": "bool",
              "name": "active",
              "type": "bool"
            }
          ],
          "internalType": "struct MarsBaseExchange.MBOffer",
          "name": "",
          "type": "tuple"
        }
      ],
      "stateMutability": "view",
      "type": "function"
    },
    {
      "inputs": [],
      "name": "getAllOffers",
      "outputs": [
        {
          "components": [
            {
              "internalType": "uint256",
              "name": "offerId",
              "type": "uint256"
            },
            {
              "internalType": "enum MarsBaseExchange.OfferType",
              "name": "offerType",
              "type": "uint8"
            },
            {
              "internalType": "contract IERC20",
              "name": "tokenAlice",
              "type": "address"
            },
            {
              "internalType": "address[]",
              "name": "tokenBob",
              "type": "address[]"
            },
            {
              "internalType": "uint256",
              "name": "amountAlice",
              "type": "uint256"
            },
            {
              "internalType": "uint256[]",
              "name": "amountBob",
              "type": "uint256[]"
            },
            {
              "internalType": "uint256",
              "name": "feeAlice",
              "type": "uint256"
            },
            {
              "internalType": "uint256",
              "name": "feeBob",
              "type": "uint256"
            },
            {
              "internalType": "uint256",
              "name": "smallestChunkSize",
              "type": "uint256"
            },
            {
              "internalType": "uint256",
              "name": "amountRemaining",
              "type": "uint256"
            },
            {
              "internalType": "uint256",
              "name": "minimumSize",
              "type": "uint256"
            },
            {
              "internalType": "uint256[]",
              "name": "minimumOrderAmountsAlice",
              "type": "uint256[]"
            },
            {
              "internalType": "uint256[]",
              "name": "minimumOrderAmountsBob",
              "type": "uint256[]"
            },
            {
              "internalType": "address[]",
              "name": "minimumOrderAddresses",
              "type": "address[]"
            },
            {
              "internalType": "address[]",
              "name": "minimumOrderTokens",
              "type": "address[]"
            },
            {
              "internalType": "uint256",
              "name": "deadline",
              "type": "uint256"
            },
            {
              "internalType": "address",
              "name": "offerer",
              "type": "address"
            },
            {
              "internalType": "address",
              "name": "payoutAddress",
              "type": "address"
            },
            {
              "internalType": "bool[]",
              "name": "capabilities",
              "type": "bool[]"
            },
            {
              "internalType": "bool",
              "name": "active",
              "type": "bool"
            }
          ],
          "internalType": "struct MarsBaseExchange.MBOffer[]",
          "name": "",
          "type": "tuple[]"
        }
      ],
      "stateMutability": "view",
      "type": "function"
    },
    {
      "inputs": [
        {
          "internalType": "uint256",
          "name": "amountAlice",
          "type": "uint256"
        },
        {
          "internalType": "uint256",
          "name": "offerAmountAlice",
          "type": "uint256"
        },
        {
          "internalType": "uint256",
          "name": "offerAmountBob",
          "type": "uint256"
        }
      ],
      "name": "price",
      "outputs": [
        {
          "internalType": "uint256",
          "name": "",
          "type": "uint256"
        }
      ],
      "stateMutability": "pure",
      "type": "function"
    },
    {
      "inputs": [
        {
          "internalType": "address",
          "name": "tokenAlice",
          "type": "address"
        },
        {
          "internalType": "address[]",
          "name": "tokenBob",
          "type": "address[]"
        },
        {
          "internalType": "uint256",
          "name": "amountAlice",
          "type": "uint256"
        },
        {
          "internalType": "uint256[]",
          "name": "amountBob",
          "type": "uint256[]"
        },
        {
          "internalType": "uint256[]",
          "name": "fees",
          "type": "uint256[]"
        },
        {
          "internalType": "uint256[]",
          "name": "offerParameters",
          "type": "uint256[]"
        }
      ],
      "name": "createOffer",
      "outputs": [
        {
          "internalType": "uint256",
          "name": "",
          "type": "uint256"
        }
      ],
      "stateMutability": "payable",
      "type": "function"
    },
    {
      "inputs": [
        {
          "internalType": "uint256",
          "name": "offerId",
          "type": "uint256"
        }
      ],
      "name": "cancelOffer",
      "outputs": [
        {
          "internalType": "uint256",
          "name": "",
          "type": "uint256"
        }
      ],
      "stateMutability": "payable",
      "type": "function"
    },
    {
      "inputs": [
        {
          "internalType": "uint256",
          "name": "offerId",
          "type": "uint256"
        },
        {
          "internalType": "address[]",
          "name": "tokenBob",
          "type": "address[]"
        },
        {
          "internalType": "uint256[]",
          "name": "amountBob",
          "type": "uint256[]"
        }
      ],
      "name": "changeOfferPrice",
      "outputs": [
        {
          "internalType": "uint256",
          "name": "",
          "type": "uint256"
        }
      ],
      "stateMutability": "payable",
      "type": "function"
    },
    {
      "inputs": [
        {
          "internalType": "uint256",
          "name": "offerId",
          "type": "uint256"
        },
        {
          "internalType": "address[]",
          "name": "tokenBob",
          "type": "address[]"
        },
        {
          "internalType": "uint256[]",
          "name": "amountBob",
          "type": "uint256[]"
        },
        {
          "internalType": "uint256",
          "name": "smallestChunkSize",
          "type": "uint256"
        }
      ],
      "name": "changeOfferPricePart",
      "outputs": [
        {
          "internalType": "uint256",
          "name": "",
          "type": "uint256"
        }
      ],
      "stateMutability": "payable",
      "type": "function"
    },
    {
      "inputs": [
        {
          "internalType": "uint256",
          "name": "offerId",
          "type": "uint256"
        },
        {
          "internalType": "address",
          "name": "tokenBob",
          "type": "address"
        },
        {
          "internalType": "uint256",
          "name": "amountBob",
          "type": "uint256"
        }
      ],
      "name": "acceptOffer",
      "outputs": [
        {
          "internalType": "uint256",
          "name": "",
          "type": "uint256"
        }
      ],
      "stateMutability": "payable",
      "type": "function"
    },
    {
      "inputs": [
        {
          "internalType": "uint256",
          "name": "offerId",
          "type": "uint256"
        },
        {
          "internalType": "address",
          "name": "tokenBob",
          "type": "address"
        },
        {
          "internalType": "uint256",
          "name": "amountBob",
          "type": "uint256"
        }
      ],
      "name": "acceptOfferPart",
      "outputs": [
        {
          "internalType": "uint256",
          "name": "",
          "type": "uint256"
        }
      ],
      "stateMutability": "payable",
      "type": "function"
    },
    {
      "inputs": [
        {
          "internalType": "uint256",
          "name": "offerId",
          "type": "uint256"
        },
        {
          "internalType": "address",
          "name": "tokenBob",
          "type": "address"
        },
        {
          "internalType": "uint256",
          "name": "amountBob",
          "type": "uint256"
        }
      ],
      "name": "acceptOfferPartWithMinimum",
      "outputs": [
        {
          "internalType": "uint256",
          "name": "",
          "type": "uint256"
        }
      ],
      "stateMutability": "payable",
      "type": "function"
    }
  ],
  "bytecode": "0x6080604052600a6002553480156200001657600080fd5b50620000223362000028565b62000078565b600080546001600160a01b038381166001600160a01b0319831681178455604051919092169283917f8be0079c531659141344cd1fd0a4f28419497f9722a3daafe3b4186f6b6457e09190a35050565b614a6e80620000886000396000f3fe6080604052600436106100c35760003560e01c8063182a7506146100c85780632071a9f4146100ea5780634579268a1461011d57806357e68a091461014a57806370d53fd51461015d578063715018a6146101705780638a72ea6a146101855780638da5cb5b146102275780639589d7b914610254578063a165527814610267578063b87ae47d14610289578063d05e67b41461029c578063d3eefa38146102b1578063ef706adf146102c4578063ef77c200146102d7578063f2fde38b146102ea575b600080fd5b3480156100d457600080fd5b506100e86100e3366004613912565b61030a565b005b3480156100f657600080fd5b5061010a61010536600461392b565b610357565b6040519081526020015b60405180910390f35b34801561012957600080fd5b5061013d610138366004613912565b61037b565b6040516101149190613bc7565b61010a610158366004613c25565b610716565b61010a61016b366004613cc2565b610a44565b34801561017c57600080fd5b506100e8610dfc565b34801561019157600080fd5b5061020e6101a0366004613912565b6003602081905260009182526040909120805460018201549282015460058301546006840154600785015460088601546009870154600e880154600f89015460108a01546012909a0154989a60ff8082169b6001600160a01b0361010090930483169b93831693921691168d565b6040516101149d9c9b9a99989796959493929190613da2565b34801561023357600080fd5b5061023c610e37565b6040516001600160a01b039091168152602001610114565b61010a610262366004613e22565b610e46565b34801561027357600080fd5b5061027c61133a565b6040516101149190613e57565b61010a610297366004613e22565b611785565b3480156102a857600080fd5b506100e8611d97565b61010a6102bf366004613e22565b611e4a565b61010a6102d2366004613912565b6126c0565b61010a6102e5366004613eb9565b612c45565b3480156102f657600080fd5b506100e8610305366004613f32565b612f57565b33610313610e37565b6001600160a01b0316146103425760405162461bcd60e51b815260040161033990613f4d565b60405180910390fd5b6000811161035257610352613f82565b600255565b6000806103648584612ff4565b9050836103718183613fae565b9695505050505050565b6103836135ac565b60008281526003602090815260409182902082516102808101909352805483526001810154909183019060ff1660068111156103c1576103c1613957565b60068111156103d2576103d2613957565b8152600182015461010090046001600160a01b0316602080830191909152600283018054604080518285028101850182528281529401939283018282801561044357602002820191906000526020600020905b81546001600160a01b03168152600190910190602001808311610425575b5050505050815260200160038201548152602001600482018054806020026020016040519081016040528092919081815260200182805480156104a557602002820191906000526020600020905b815481526020019060010190808311610491575b505050505081526020016005820154815260200160068201548152602001600782015481526020016008820154815260200160098201548152602001600a820180548060200260200160405190810160405280929190818152602001828054801561052f57602002820191906000526020600020905b81548152602001906001019080831161051b575b50505050508152602001600b820180548060200260200160405190810160405280929190818152602001828054801561058757602002820191906000526020600020905b815481526020019060010190808311610573575b50505050508152602001600c82018054806020026020016040519081016040528092919081815260200182805480156105e957602002820191906000526020600020905b81546001600160a01b031681526001909101906020018083116105cb575b50505050508152602001600d820180548060200260200160405190810160405280929190818152602001828054801561064b57602002820191906000526020600020905b81546001600160a01b0316815260019091019060200180831161062d575b5050509183525050600e820154602080830191909152600f8301546001600160a01b039081166040808501919091526010850154909116606084015260118401805482518185028101850190935280835260809094019391929091908301828280156106f657602002820191906000526020600020906000905b825461010083900a900460ff1615158152602060019283018181049485019490930390920291018084116106c55790505b50505091835250506012919091015460ff16151560209091015292915050565b600084831461072757610727613f82565b60005b858110156107ac57600087878381811061074657610746613fd0565b905060200201602081019061075b9190613f32565b6001600160a01b0316141561077257610772613f82565b600085858381811061078657610786613fd0565b905060200201351161079a5761079a613f82565b806107a481613fe6565b91505061072a565b506001548711156107bf576107bf613f82565b6000878152600360205260408120601181018054919290916107e3576107e3613fd0565b90600052602060002090602091828204019190069054906101000a900460ff161515600115151461081657610816613f82565b600f8101546001600160a01b0316331461083257610832613f82565b806003015483111561084657610846613f82565b610854600282018888613663565b506108636004820186866136c6565b5060078101839055600088815260036020526040902081548155600180830154818301805485949360ff9093169260ff19909116908360068111156108aa576108aa613957565b02179055506001828101549082018054610100600160a81b031916610100928390046001600160a01b0316909202919091179055600280830180546108f29284019190613701565b50600382015481600301556004820181600401908054610913929190613701565b506005820154816005015560068201548160060155600782015481600701556008820154816008015560098201548160090155600a820181600a0190805461095c929190613701565b50600b82810180546109719284019190613701565b50600c82810180546109869284019190613701565b50600d828101805461099b9284019190613701565b50600e8281015490820155600f8083015490820180546001600160a01b039283166001600160a01b0319918216179091556010808501549084018054919093169116179055601180830180546109f49284019190613741565b506012918201549101805460ff191660ff90921615159190911790556040516000805160206149f983398151915290610a30908a908490614903565b60405180910390a150959695505050505050565b60008085856000818110610a5a57610a5a613fd0565b905060200201359050600086866001818110610a7857610a78613fd0565b60200291909101359150506001600160a01b038d16610a9957610a99613f82565b60005b8b811015610af65760008d8d83818110610ab857610ab8613fd0565b9050602002016020810190610acd9190613f32565b6001600160a01b03161415610ae457610ae4613f82565b80610aee81613fe6565b915050610a9c565b50600254610b04828461491c565b1015610b1257610b12613f82565b6000610b248e8e8e8e8e8e8e8e613007565b9050610b3181878761317a565b60018054600081815260036020908152604090912084518155908401518184018054959650929486949293919260ff1990911690836006811115610b7757610b77613957565b021790555060408201516001820180546001600160a01b0390921661010002610100600160a81b031990921691909117905560608201518051610bc491600284019160209091019061378e565b506080820151600382015560a08201518051610bea9160048401916020909101906137e3565b5060c0820151600582015560e082015160068201556101008201516007820155610120820151600882015561014082015160098201556101608201518051610c3c91600a8401916020909101906137e3565b506101808201518051610c5991600b8401916020909101906137e3565b506101a08201518051610c7691600c84019160209091019061378e565b506101c08201518051610c9391600d84019160209091019061378e565b506101e0820151600e820155610200820151600f820180546001600160a01b039283166001600160a01b0319918216179091556102208401516010840180549190931691161790556102408201518051610cf791601184019160209091019061381e565b506102608201518160120160006101000a81548160ff02191690831515021790555090505081604001516001600160a01b03166323b872dd33308f6040518463ffffffff1660e01b8152600401610d5093929190614934565b6020604051808303816000875af1158015610d6f573d6000803e3d6000fd5b505050506040513d601f19601f82011682018060405250810190610d939190614958565b610d9c57600080fd5b60018054906000610dac83613fe6565b91905055507f482104fc7d560f0bdfcefb3cb48a662c67c374e4b4a9bdacd6db25a96be8ebb48183604051610de292919061497a565b60405180910390a19e9d5050505050505050505050505050565b33610e05610e37565b6001600160a01b031614610e2b5760405162461bcd60e51b815260040161033990613f4d565b610e356000613359565b565b6000546001600160a01b031690565b60008381526003602052604081206001600160a01b038416610e6a57610e6a613f82565b601281015460ff161515600114610e8357610e83613f82565b600e810154421080610e975750600e810154155b610ea357610ea3613f82565b60008060005b6002840154811015610f7e57866001600160a01b0316846002018281548110610ed457610ed4613fd0565b6000918252602090912001546001600160a01b0316148015610f14575085846004018281548110610f0757610f07613fd0565b9060005260206000200154145b15610f6c57836002018181548110610f2e57610f2e613fd0565b6000918252602090912001546004850180546001600160a01b0390921694509082908110610f5e57610f5e613fd0565b906000526020600020015491505b80610f7681613fe6565b915050610ea9565b50856001600160a01b0316826001600160a01b031614610fa057610fa0613f82565b848114610faf57610faf613f82565b60006103e8610fd485600501546103e8610fc99190614993565b600887015490612ff4565b610fde9190613fae565b905060006103e861100186600601546103e8610ffa9190614993565b8590612ff4565b61100b9190613fae565b905060006110198285614993565b90506000811161102b5761102b613f82565b60108601546040516323b872dd60e01b81526001600160a01b03808816926323b872dd9261106192339216908790600401614934565b6020604051808303816000875af1158015611080573d6000803e3d6000fd5b505050506040513d601f19601f820116820180604052508101906110a49190614958565b6110ad57600080fd5b600186015460405163a9059cbb60e01b81526101009091046001600160a01b03169063a9059cbb906110e590339087906004016149aa565b6020604051808303816000875af1158015611104573d6000803e3d6000fd5b505050506040513d601f19601f820116820180604052508101906111289190614958565b61113157600080fd5b6040516323b872dd60e01b81526001600160a01b038616906323b872dd9061116190339030908690600401614934565b6020604051808303816000875af1158015611180573d6000803e3d6000fd5b505050506040513d601f19601f820116820180604052508101906111a49190614958565b6111ad57600080fd5b60008a81526003602052604081208181556001810180546001600160a81b0319169055906111de60028301826138be565b60038201600090556004820160006111f691906138be565b60058201600090556006820160009055600782016000905560088201600090556009820160009055600a8201600061122e91906138be565b61123c600b830160006138be565b61124a600c830160006138be565b611258600d830160006138be565b6000600e8301819055600f830180546001600160a01b0319908116909155601084018054909116905561128f9060118401906138dc565b506012908101805460ff1916905560008b8152600360205260409020015460ff16156112bd576112bd613f82565b60008a81526003602081905260409091200154156112dd576112dd613f82565b60008a8152600360205260409020600f01546001600160a01b03161561130557611305613f82565b600080516020614a198339815191528a87604051611324929190614903565b60405180910390a1509798975050505050505050565b606060006001546001600160401b03811115611358576113586149c3565b60405190808252806020026020018201604052801561139157816020015b61137e6135ac565b8152602001906001900390816113765790505b50905060005b60015481101561177f5760008181526003602052604090206012015460ff1615156001141561176d5760008181526003602090815260409182902082516102808101909352805483526001810154909183019060ff1660068111156113fe576113fe613957565b600681111561140f5761140f613957565b8152600182015461010090046001600160a01b0316602080830191909152600283018054604080518285028101850182528281529401939283018282801561148057602002820191906000526020600020905b81546001600160a01b03168152600190910190602001808311611462575b5050505050815260200160038201548152602001600482018054806020026020016040519081016040528092919081815260200182805480156114e257602002820191906000526020600020905b8154815260200190600101908083116114ce575b505050505081526020016005820154815260200160068201548152602001600782015481526020016008820154815260200160098201548152602001600a820180548060200260200160405190810160405280929190818152602001828054801561156c57602002820191906000526020600020905b815481526020019060010190808311611558575b50505050508152602001600b82018054806020026020016040519081016040528092919081815260200182805480156115c457602002820191906000526020600020905b8154815260200190600101908083116115b0575b50505050508152602001600c820180548060200260200160405190810160405280929190818152602001828054801561162657602002820191906000526020600020905b81546001600160a01b03168152600190910190602001808311611608575b50505050508152602001600d820180548060200260200160405190810160405280929190818152602001828054801561168857602002820191906000526020600020905b81546001600160a01b0316815260019091019060200180831161166a575b5050509183525050600e820154602080830191909152600f8301546001600160a01b0390811660408085019190915260108501549091166060840152601184018054825181850281018501909352808352608090940193919290919083018282801561173357602002820191906000526020600020906000905b825461010083900a900460ff1615158152602060019283018181049485019490930390920291018084116117025790505b50505091835250506012919091015460ff161515602090910152825183908390811061176157611761613fd0565b60200260200101819052505b8061177781613fe6565b915050611397565b50919050565b60008381526003602052604081206001600160a01b0384166117a9576117a9613f82565b601281015460ff1615156001146117c2576117c2613f82565b600e8101544210806117d65750600e810154155b6117e2576117e2613f82565b6002600182015460ff1660068111156117fd576117fd613957565b148061182157506005600182015460ff16600681111561181f5761181f613957565b145b8061184457506006600182015460ff16600681111561184257611842613957565b145b8061186757506003600182015460ff16600681111561186557611865613957565b145b61187357611873613f82565b60008060005b600284015481101561192457866001600160a01b03168460020182815481106118a4576118a4613fd0565b6000918252602090912001546001600160a01b03161415611912578360020181815481106118d4576118d4613fd0565b6000918252602090912001546004850180546001600160a01b039092169450908290811061190457611904613fd0565b906000526020600020015491505b8061191c81613fe6565b915050611879565b50600061193686838660030154610357565b9050600061194982866003015485610357565b905060006103e861196587600501546103e8610ffa9190614993565b61196f9190613fae565b905060006103e861198b88600601546103e8610ffa9190614993565b6119959190613fae565b905060006119a38285614993565b9050600081116119b5576119b5613f82565b87600701548310156119c9576119c9613f82565b87600801548311156119dd576119dd613f82565b60108801546040516323b872dd60e01b81526001600160a01b03808a16926323b872dd92611a1392339216908790600401614934565b6020604051808303816000875af1158015611a32573d6000803e3d6000fd5b505050506040513d601f19601f82011682018060405250810190611a569190614958565b611a5f57600080fd5b6040516323b872dd60e01b81526001600160a01b038816906323b872dd90611a8f90339030908690600401614934565b6020604051808303816000875af1158015611aae573d6000803e3d6000fd5b505050506040513d601f19601f82011682018060405250810190611ad29190614958565b611adb57600080fd5b600188015460405163a9059cbb60e01b81526101009091046001600160a01b03169063a9059cbb90611b1390339087906004016149aa565b6020604051808303816000875af1158015611b32573d6000803e3d6000fd5b505050506040513d601f19601f82011682018060405250810190611b569190614958565b611b5f57600080fd5b60008c81526003602052604081206008018054879290611b80908490614993565b909155505060008c815260036020526040902060080154611d3e5760008c81526003602052604081208181556001810180546001600160a81b031916905590611bcc60028301826138be565b6003820160009055600482016000611be491906138be565b60058201600090556006820160009055600782016000905560088201600090556009820160009055600a82016000611c1c91906138be565b611c2a600b830160006138be565b611c38600c830160006138be565b611c46600d830160006138be565b6000600e8301819055600f830180546001600160a01b03199081169091556010840180549091169055611c7d9060118401906138dc565b506012908101805460ff1916905560008d8152600360205260409020015460ff1615611cab57611cab613f82565b60008c8152600360208190526040909120015415611ccb57611ccb613f82565b60008c81526003602052604090206008015415611cea57611cea613f82565b60008c8152600360205260409020600f01546001600160a01b031615611d1257611d12613f82565b600080516020614a198339815191528c89604051611d31929190614903565b60405180910390a1611d87565b60008c8152600360205260409081902090517f8cb0ce7c5ef25022e996f19cf67191c7ad0e31870e77fbb24ee8b00cbf9dbfdf91611d7e918f9190614903565b60405180910390a15b50999a9950505050505050505050565b33611da0610e37565b6001600160a01b031614611dc65760405162461bcd60e51b815260040161033990613f4d565b60005b600154811015611e47576000818152600360205260409020600e01544210158015611e0457506000818152600360205260409020600e015415155b15611e3557611e12816126c0565b5060008181526003602052604090206012015460ff1615611e3557611e35613f82565b80611e3f81613fe6565b915050611dc9565b50565b60008381526003602052604081206001600160a01b038416611e6e57611e6e613f82565b601281015460ff161515600114611e8757611e87613f82565b600e810154421080611e9b5750600e810154155b611ea757611ea7613f82565b6003600182015460ff166006811115611ec257611ec2613957565b1480611ee657506004600182015460ff166006811115611ee457611ee4613957565b145b80611f0957506006600182015460ff166006811115611f0757611f07613957565b145b611f1557611f15613f82565b60008060005b6002840154811015611fc657866001600160a01b0316846002018281548110611f4657611f46613fd0565b6000918252602090912001546001600160a01b03161415611fb457836002018181548110611f7657611f76613fd0565b6000918252602090912001546004850180546001600160a01b0390921694509082908110611fa657611fa6613fd0565b906000526020600020015491505b80611fbe81613fe6565b915050611f1b565b506000611fd886838660030154610357565b90506000611feb82866003015485610357565b905060006103e861200787600501546103e8610ffa9190614993565b6120119190613fae565b905060006103e861202d88600601546103e8610ffa9190614993565b6120379190613fae565b9050896001600160a01b0316866001600160a01b03161461205a5761205a613f82565b866007015484101561206e5761206e613f82565b866008015484111561208257612082613f82565b60008b815260036020526040812060080180548592906120a3908490614993565b9091555050600887015460038801546000916120be91614993565b9050876009015481106124e55760108801546040516323b872dd60e01b81526001600160a01b03808a16926323b872dd9261210192339216908790600401614934565b6020604051808303816000875af1158015612120573d6000803e3d6000fd5b505050506040513d601f19601f820116820180604052508101906121449190614958565b61214d57600080fd5b600188015460405163a9059cbb60e01b81526101009091046001600160a01b03169063a9059cbb9061218590339087906004016149aa565b6020604051808303816000875af11580156121a4573d6000803e3d6000fd5b505050506040513d601f19601f820116820180604052508101906121c89190614958565b6121d157600080fd5b6001600160a01b0387166323b872dd33306121ec8689614993565b6040518463ffffffff1660e01b815260040161220a93929190614934565b6020604051808303816000875af1158015612229573d6000803e3d6000fd5b505050506040513d601f19601f8201168201806040525081019061224d9190614958565b61225657600080fd5b60008060005b600c8b0154811015612469576103e86122ae8c600501546103e86122809190614993565b8d600a01848154811061229557612295613fd0565b9060005260206000200154612ff490919063ffffffff16565b6122b89190613fae565b92506103e86122e78c600601546103e86122d29190614993565b8d600b01848154811061229557612295613fd0565b6122f19190613fae565b91508a600d01818154811061230857612308613fd0565b60009182526020909120015460108c01546040516323b872dd60e01b81526001600160a01b03928316926323b872dd9261234c923092909116908890600401614934565b6020604051808303816000875af115801561236b573d6000803e3d6000fd5b505050506040513d601f19601f8201168201806040525081019061238f9190614958565b61239857600080fd5b8a60010160019054906101000a90046001600160a01b03166001600160a01b031663a9059cbb8c600c0183815481106123d3576123d3613fd0565b6000918252602090912001546040516001600160e01b031960e084901b16815261240b916001600160a01b03169086906004016149aa565b6020604051808303816000875af115801561242a573d6000803e3d6000fd5b505050506040513d601f19601f8201168201806040525081019061244e9190614958565b61245757600080fd5b8061246181613fe6565b91505061225c565b5060008e815260036020526040812061248791600c909101906138be565b60008e81526003602052604081206124a491600b909101906138be565b60008e81526003602052604081206124c191600a909101906138be565b60008e81526003602052604081206124de91600d909101906138be565b5050612679565b6040516323b872dd60e01b81526001600160a01b038816906323b872dd9061251590339030908990600401614934565b6020604051808303816000875af1158015612534573d6000803e3d6000fd5b505050506040513d601f19601f820116820180604052508101906125589190614958565b61256157600080fd5b600c880154801561257a57612577600182614993565b90505b60008d81526003602090815260408220600c8101805460018082018355918552838520018054336001600160a01b031991821617909155600b830180548084018255908652848620018a9055600a830180548084018255908652848620018b9055600d909201805480830182559085529290932090910180549091166001600160a01b038b1617905561260e90829061491c565b600b8a01541461262057612620613f82565b61262b81600161491c565b600a8a01541461263d5761263d613f82565b61264881600161491c565b600c8a01541461265a5761265a613f82565b61266581600161491c565b600d8a01541461267757612677613f82565b505b60008c815260036020526040902060080154611d3e5760008c81526003602052604081208181556001810180546001600160a81b031916905590611bcc60028301826138be565b600081815260036020526040812060118101805460019081106126e5576126e5613fd0565b90600052602060002090602091828204019190069054906101000a900460ff161515600115151461271857612718613f82565b600f8101546001600160a01b0316331461273457612734613f82565b601281015460ff16151560011461274d5761274d613f82565b600081600301541161276157612761613f82565b6003600182015460ff16600681111561277c5761277c613957565b14806127a057506004600182015460ff16600681111561279e5761279e613957565b145b806127c357506006600182015460ff1660068111156127c1576127c1613957565b145b15612a1f5760005b600c82015481101561298b5760006001600160a01b031682600d0182815481106127f7576127f7613fd0565b6000918252602090912001546001600160a01b0316141561281a5761281a613f82565b60006001600160a01b031682600c01828154811061283a5761283a613fd0565b6000918252602090912001546001600160a01b0316141561285d5761285d613f82565b81600b01818154811061287257612872613fd0565b90600052602060002001546000141561288d5761288d613f82565b81600d0181815481106128a2576128a2613fd0565b600091825260209091200154600c830180546001600160a01b039092169163a9059cbb9190849081106128d7576128d7613fd0565b600091825260209091200154600b850180546001600160a01b03909216918590811061290557612905613fd0565b90600052602060002001546040518363ffffffff1660e01b815260040161292d9291906149aa565b6020604051808303816000875af115801561294c573d6000803e3d6000fd5b505050506040513d601f19601f820116820180604052508101906129709190614958565b61297957600080fd5b8061298381613fe6565b9150506127cb565b506001810154600f820154600383015460405163a9059cbb60e01b81526001600160a01b0361010090940484169363a9059cbb936129ce939116916004016149aa565b6020604051808303816000875af11580156129ed573d6000803e3d6000fd5b505050506040513d601f19601f82011682018060405250810190612a119190614958565b612a1a57600080fd5b612aad565b6001810154600f820154600883015460405163a9059cbb60e01b81526001600160a01b0361010090940484169363a9059cbb93612a61939116916004016149aa565b6020604051808303816000875af1158015612a80573d6000803e3d6000fd5b505050506040513d601f19601f82011682018060405250810190612aa49190614958565b612aad57600080fd5b60008381526003602052604081208181556001810180546001600160a81b031916905590612ade60028301826138be565b6003820160009055600482016000612af691906138be565b60058201600090556006820160009055600782016000905560088201600090556009820160009055600a82016000612b2e91906138be565b612b3c600b830160006138be565b612b4a600c830160006138be565b612b58600d830160006138be565b6000600e8301819055600f830180546001600160a01b03199081169091556010840180549091169055612b8f9060118401906138dc565b506012908101805460ff191690556000848152600360205260409020015460ff1615612bbd57612bbd613f82565b6000838152600360208190526040909120015415612bdd57612bdd613f82565b6000838152600360205260409020600f01546001600160a01b031615612c0557612c05613f82565b7f79d48e31e01ca5cfc5f0fe761ccdaa84ccae8e128102aa669d77533223c8f24e8382604051612c36929190614903565b60405180910390a15090919050565b6000838214612c5657612c56613f82565b60005b84811015612cdb576000868683818110612c7557612c75613fd0565b9050602002016020810190612c8a9190613f32565b6001600160a01b03161415612ca157612ca1613f82565b6000848483818110612cb557612cb5613fd0565b9050602002013511612cc957612cc9613f82565b80612cd381613fe6565b915050612c59565b50600154861115612cee57612cee613f82565b600086815260036020526040812060118101805491929091612d1257612d12613fd0565b90600052602060002090602091828204019190069054906101000a900460ff1615156001151514612d4557612d45613f82565b600f8101546001600160a01b03163314612d6157612d61613f82565b612d6f600282018787613663565b50612d7e6004820185856136c6565b50600087815260036020526040902081548155600180830154818301805485949360ff9093169260ff1990911690836006811115612dbe57612dbe613957565b02179055506001828101549082018054610100600160a81b031916610100928390046001600160a01b031690920291909117905560028083018054612e069284019190613701565b50600382015481600301556004820181600401908054612e27929190613701565b506005820154816005015560068201548160060155600782015481600701556008820154816008015560098201548160090155600a820181600a01908054612e70929190613701565b50600b8281018054612e859284019190613701565b50600c8281018054612e9a9284019190613701565b50600d8281018054612eaf9284019190613701565b50600e8281015490820155600f8083015490820180546001600160a01b039283166001600160a01b031991821617909155601080850154908401805491909316911617905560118083018054612f089284019190613741565b506012918201549101805460ff191660ff90921615159190911790556040516000805160206149f983398151915290612f449089908490614903565b60405180910390a1509495945050505050565b33612f60610e37565b6001600160a01b031614612f865760405162461bcd60e51b815260040161033990613f4d565b6001600160a01b038116612feb5760405162461bcd60e51b815260206004820152602660248201527f4f776e61626c653a206e6577206f776e657220697320746865207a65726f206160448201526564647265737360d01b6064820152608401610339565b611e4781613359565b600061300082846149d9565b9392505050565b61300f6135ac565b6130176135ac565b60015481526001600160a01b038a1660408083019190915280516020808b0282810182019093528a825290918b918b91829185019084908082843760009201919091525050505060608201526080810187905260408051602080880282810182019093528782529091889188918291850190849080828437600092018290525060a08601949094525086928692509050816130b4576130b4613fd0565b602002919091013560c083015250838360018181106130d5576130d5613fd0565b6020908102929092013560e084015250610120820188905260408051600080825281840183526101c0850191909152815181815280840183526101a085015281518181528084018352610160850152815190815280830182526101808401523361020084018190526102208401528051600280825260608201835290929091908301908036833750505061024082015260016102608201529998505050505050505050565b6131826135ac565b8282600081811061319557613195613fd0565b90506020020135846080015110156131af576131af613f82565b828260018181106131c2576131c2613fd0565b905060200201356131d04290565b10806131f55750828260018181106131ea576131ea613fd0565b905060200201356000145b61320157613201613f82565b613210846080015184846133a9565b8460200190600681111561322657613226613957565b9081600681111561323957613239613957565b905250828260008161324d5761324d613fd0565b6020029190910135610100860152508282600281811061326f5761326f613fd0565b90506020020135600114156132a957600184610240015160008151811061329857613298613fd0565b911515602092830291909101909101525b828260038181106132bc576132bc613fd0565b90506020020135600114156132f65760018461024001516001815181106132e5576132e5613fd0565b911515602092830291909101909101525b6005821415613326578282600481811061331257613312613fd0565b60200291909101356101408601525061332f565b60006101408501525b8282600181811061334257613342613fd0565b60200291909101356101e086015250929392505050565b600080546001600160a01b038381166001600160a01b0319831681178455604051919092169283917f8be0079c531659141344cd1fd0a4f28419497f9722a3daafe3b4186f6b6457e09190a35050565b60008060048314156134aa576000848460018181106133ca576133ca613fd0565b905060200201351180156133f757506000848460018181106133ee576133ee613fd0565b90506020020135115b801561341c5750848484600181811061341257613412613fd0565b9050602002013514155b15613429575060056135a4565b60008484600081811061343e5761343e613fd0565b9050602002013511801561346b5750848484600081811061346157613461613fd0565b9050602002013514155b15613478575060026135a4565b60008484600181811061348d5761348d613fd0565b9050602002013511156134a2575060016135a4565b5060006135a4565b60058314156135a4576000848460008181106134c8576134c8613fd0565b905060200201351180156134f557506000848460018181106134ec576134ec613fd0565b90506020020135115b801561351a5750848484600081811061351057613510613fd0565b9050602002013514155b15613527575060066135a4565b60008484600081811061353c5761353c613fd0565b905060200201351180156135695750848484600081811061355f5761355f613fd0565b9050602002013514155b15613576575060036135a4565b60008484600181811061358b5761358b613fd0565b9050602002013511156135a0575060046135a4565b5060035b949350505050565b60408051610280810190915260008082526020820190815260200160006001600160a01b031681526020016060815260200160008152602001606081526020016000815260200160008152602001600081526020016000815260200160008152602001606081526020016060815260200160608152602001606081526020016000815260200160006001600160a01b0316815260200160006001600160a01b03168152602001606081526020016000151581525090565b8280548282559060005260206000209081019282156136b6579160200282015b828111156136b65781546001600160a01b0319166001600160a01b03843516178255602090920191600190910190613683565b506136c29291506138fd565b5090565b8280548282559060005260206000209081019282156136b6579160200282015b828111156136b65782358255916020019190600101906136e6565b8280548282559060005260206000209081019282156136b65760005260206000209182015b828111156136b6578254825591600101919060010190613726565b82805482825590600052602060002090601f016020900481019282156136b657600052602060002091601f01602090048201828111156136b6578254825591600101919060010190613726565b8280548282559060005260206000209081019282156136b6579160200282015b828111156136b657825182546001600160a01b0319166001600160a01b039091161782556020909201916001909101906137ae565b8280548282559060005260206000209081019282156136b6579160200282015b828111156136b6578251825591602001919060010190613803565b82805482825590600052602060002090601f016020900481019282156136b65791602002820160005b8382111561388457835183826101000a81548160ff0219169083151502179055509260200192600101602081600001049283019260010302613847565b80156138b15782816101000a81549060ff0219169055600101602081600001049283019260010302613884565b50506136c29291506138fd565b5080546000825590600052602060002090810190611e4791906138fd565b50805460008255601f016020900490600052602060002090810190611e4791905b5b808211156136c257600081556001016138fe565b60006020828403121561392457600080fd5b5035919050565b60008060006060848603121561394057600080fd5b505081359360208301359350604090920135919050565b634e487b7160e01b600052602160045260246000fd5b6007811061398b57634e487b7160e01b600052602160045260246000fd5b9052565b6001600160a01b03169052565b600081518084526020808501945080840160005b838110156139d55781516001600160a01b0316875295820195908201906001016139b0565b509495945050505050565b600081518084526020808501945080840160005b838110156139d5578151875295820195908201906001016139f4565b600081518084526020808501945080840160005b838110156139d5578151151587529582019590820190600101613a24565b6000610280825184526020830151613a5d602086018261396d565b506040830151613a70604086018261398f565b506060830151816060860152613a888286018261399c565b9150506080830151608085015260a083015184820360a0860152613aac82826139e0565b91505060c083015160c085015260e083015160e08501526101008084015181860152506101208084015181860152506101408084015181860152506101608084015185830382870152613aff83826139e0565b925050506101808084015185830382870152613b1b83826139e0565b925050506101a08084015185830382870152613b37838261399c565b925050506101c08084015185830382870152613b53838261399c565b925050506101e080840151818601525061020080840151613b768287018261398f565b505061022080840151613b8b8287018261398f565b50506102408084015185830382870152613ba58382613a10565b9250505061026080840151613bbd8287018215159052565b5090949350505050565b6020815260006130006020830184613a42565b60008083601f840112613bec57600080fd5b5081356001600160401b03811115613c0357600080fd5b6020830191508360208260051b8501011115613c1e57600080fd5b9250929050565b60008060008060008060808789031215613c3e57600080fd5b8635955060208701356001600160401b0380821115613c5c57600080fd5b613c688a838b01613bda565b90975095506040890135915080821115613c8157600080fd5b50613c8e89828a01613bda565b979a9699509497949695606090950135949350505050565b80356001600160a01b0381168114613cbd57600080fd5b919050565b60008060008060008060008060008060c08b8d031215613ce157600080fd5b613cea8b613ca6565b995060208b01356001600160401b0380821115613d0657600080fd5b613d128e838f01613bda565b909b50995060408d0135985060608d0135915080821115613d3257600080fd5b613d3e8e838f01613bda565b909850965060808d0135915080821115613d5757600080fd5b613d638e838f01613bda565b909650945060a08d0135915080821115613d7c57600080fd5b50613d898d828e01613bda565b915080935050809150509295989b9194979a5092959850565b8d81526101a08101613db7602083018f61396d565b6001600160a01b039c8d166040830152606082019b909b52608081019990995260a089019790975260c088019590955260e087019390935261010086019190915261012085015285166101408401529093166101608201529115156101809092019190915292915050565b600080600060608486031215613e3757600080fd5b83359250613e4760208501613ca6565b9150604084013590509250925092565b6000602080830181845280855180835260408601915060408160051b870101925083870160005b82811015613eac57603f19888603018452613e9a858351613a42565b94509285019290850190600101613e7e565b5092979650505050505050565b600080600080600060608688031215613ed157600080fd5b8535945060208601356001600160401b0380821115613eef57600080fd5b613efb89838a01613bda565b90965094506040880135915080821115613f1457600080fd5b50613f2188828901613bda565b969995985093965092949392505050565b600060208284031215613f4457600080fd5b61300082613ca6565b6020808252818101527f4f776e61626c653a2063616c6c6572206973206e6f7420746865206f776e6572604082015260600190565b634e487b7160e01b600052600160045260246000fd5b634e487b7160e01b600052601160045260246000fd5b600082613fcb57634e487b7160e01b600052601260045260246000fd5b500490565b634e487b7160e01b600052603260045260246000fd5b6000600019821415613ffa57613ffa613f98565b5060010190565b6001600160a01b031690565b6000815480845260208085019450836000528060002060005b838110156139d55781546001600160a01b031687529582019560019182019101614026565b6000815480845260208085019450836000528060002060005b838110156139d557815487529582019560019182019101614064565b805480835260008281526020808220940193909190825b82601f8201101561430757815460ff8082161515885260206140c1818a01838560081c1615159052565b60406140d5818b01848660101c1615159052565b60606140e9818c01858760181c1615159052565b60806140fc818d018688871c1615159052565b60a09350614112848d01868860281c1615159052565b60c0614126818e01878960301c1615159052565b60e061413a818f01888a60381c1615159052565b87851c871615156101008f015261415b6101208f01888a60481c1615159052565b61416f6101408f01888a60501c1615159052565b6141836101608f01888a60581c1615159052565b87841c871615156101808f01526141a46101a08f01888a60681c1615159052565b6141b86101c08f01888a60701c1615159052565b6141cc6101e08f01888a60781c1615159052565b87831c871615156102008f01526141ed6102208f01888a60881c1615159052565b6142016102408f01888a60901c1615159052565b6142156102608f01888a60981c1615159052565b87861c871615156102808f01526142366102a08f01888a60a81c1615159052565b61424a6102c08f01888a60b01c1615159052565b61425e6102e08f01888a60b81c1615159052565b87821c871615156103008f015261427f6103208f01888a60c81c1615159052565b6142936103408f01888a60d01c1615159052565b6142a76103608f01888a60d81c1615159052565b87901c861615156103808e0152505050505060e882901c811615156103a08901526142dc6103c08901828460f01c1615159052565b506142ef6103e088018260f81c15159052565b50610400959095019460019190910190602001614097565b905490828110156143245760ff8216151586526020909501946001015b828110156143485761433d8660ff8460081c1615159052565b602095909501946001015b8281101561436c576143618660ff8460101c1615159052565b602095909501946001015b82811015614390576143858660ff8460181c1615159052565b602095909501946001015b828110156143b4576143a98660ff8460201c1615159052565b602095909501946001015b828110156143d8576143cd8660ff8460281c1615159052565b602095909501946001015b828110156143fc576143f18660ff8460301c1615159052565b602095909501946001015b82811015614420576144158660ff8460381c1615159052565b602095909501946001015b82811015614444576144398660ff8460401c1615159052565b602095909501946001015b828110156144685761445d8660ff8460481c1615159052565b602095909501946001015b8281101561448c576144818660ff8460501c1615159052565b602095909501946001015b828110156144b0576144a58660ff8460581c1615159052565b602095909501946001015b828110156144d4576144c98660ff8460601c1615159052565b602095909501946001015b828110156144f8576144ed8660ff8460681c1615159052565b602095909501946001015b8281101561451c576145118660ff8460701c1615159052565b602095909501946001015b82811015614540576145358660ff8460781c1615159052565b602095909501946001015b82811015614564576145598660ff8460801c1615159052565b602095909501946001015b828110156145885761457d8660ff8460881c1615159052565b602095909501946001015b828110156145ac576145a18660ff8460901c1615159052565b602095909501946001015b828110156145d0576145c58660ff8460981c1615159052565b602095909501946001015b828110156145f4576145e98660ff8460a01c1615159052565b602095909501946001015b828110156146185761460d8660ff8460a81c1615159052565b602095909501946001015b8281101561463c576146318660ff8460b01c1615159052565b602095909501946001015b82811015614660576146558660ff8460b81c1615159052565b602095909501946001015b82811015614684576146798660ff8460c01c1615159052565b602095909501946001015b828110156146a85761469d8660ff8460c81c1615159052565b602095909501946001015b828110156146cc576146c18660ff8460d01c1615159052565b602095909501946001015b828110156146f0576146e58660ff8460d81c1615159052565b602095909501946001015b82811015614714576147098660ff8460e01c1615159052565b602095909501946001015b828110156147385761472d8660ff8460e81c1615159052565b602095909501946001015b8281101561475c576147518660ff8460f01c1615159052565b602095909501946001015b8281101561477957614772868360f81c15159052565b6020860195505b5093949350505050565b60006102808254845260018301546147a16020860160ff831661396d565b6147bb60408601600883901c6001600160a01b031661398f565b508060608501526147d18185016002850161400d565b90506003830154608085015283810360a08501526147f2816004850161404b565b9050600583015460c0850152600683015460e085015260078301546101008501526008830154610120850152600983015461014085015283810361016085015261483f81600a850161404b565b905083810361018085015261485781600b850161404b565b90508381036101a085015261486f81600c850161400d565b90508381036101c085015261488781600d850161400d565b9050600e8301546101e08501526148a1600f840154614001565b6148af61020086018261398f565b506148bd6010840154614001565b6148cb61022086018261398f565b508381036102408501526148e28160118501614080565b90506148f2601284015460ff1690565b801515610260860152509392505050565b8281526040602082015260006135a46040830184614783565b6000821982111561492f5761492f613f98565b500190565b6001600160a01b039384168152919092166020820152604081019190915260600190565b60006020828403121561496a57600080fd5b8151801515811461300057600080fd5b8281526040602082015260006135a46040830184613a42565b6000828210156149a5576149a5613f98565b500390565b6001600160a01b03929092168252602082015260400190565b634e487b7160e01b600052604160045260246000fd5b60008160001904831182151516156149f3576149f3613f98565b50029056fe400f181181d6e66a46ff1d5fe62b8ff01740cef6c897f7f000a6120d044c7595feef2617e079f469562b0fb428688a92265dda6ca2dff959584107481d4aa4b2a264697066735822122039473f25e742681e36cd4b6cc0d4263483a7459e58fcf6886b86b9a57738954364736f6c634300080a0033",
  "immutableReferences": {},
  "source": "// SPDX-License-Identifier: MIT\npragma solidity >=0.4.22 <0.9.0;\n\nimport \"@openzeppelin/contracts/utils/math/SafeMath.sol\";\nimport \"@openzeppelin/contracts/token/ERC20/IERC20.sol\";\nimport \"@openzeppelin/contracts/access/Ownable.sol\";\n\ncontract MarsBaseExchange is Ownable {\n\n    using SafeMath for uint256;\n\n    uint256 nextOfferId;\n\n    uint256 minimumFee = 10;\n\n    enum OfferType {\n      FullPurchase,\n      LimitedTime,\n      ChunkedPurchase,\n      MinimumChunkedPurchase,\n      LimitedTimeMinimumPurchase,\n      LimitedTimeChunkedPurchase,\n      LimitedTimeMinimumChunkedPurchase\n    }\n\n    struct MBOffer {\n      uint256 offerId;\n      OfferType offerType;\n      IERC20 tokenAlice;\n      address[] tokenBob;\n      uint256 amountAlice;\n      uint256[] amountBob;\n      uint256 feeAlice;\n      uint256 feeBob;\n      uint256 smallestChunkSize;\n      uint256 amountRemaining;\n      uint256 minimumSize;\n      uint256[] minimumOrderAmountsAlice;\n      uint256[] minimumOrderAmountsBob;\n      address[] minimumOrderAddresses;\n      address[] minimumOrderTokens;\n      uint256 deadline;\n      address offerer;\n      address payoutAddress;\n      bool[] capabilities;\n      bool active;\n    }\n\n    event OfferCreated(uint256 offerId, MBOffer offer);\n    event OfferModified(uint256 offerId, MBOffer offer);\n    event OfferCancelled(uint256 offerId, MBOffer offer);\n    event OfferAccepted(uint256 offerId, MBOffer offer);\n    event OfferPartiallyAccepted(uint256 offerId, MBOffer offer);\n\n    mapping (uint256 => MBOffer) public offers;\n\n    function getTime() virtual internal view returns (uint256) {\n        // current block timestamp as seconds since unix epoch\n        // ref: https://solidity.readthedocs.io/en/v0.5.7/units-and-global-variables.html#block-and-transaction-properties\n        return block.timestamp;\n    }\n\n    function setCurrentTime() public onlyOwner {\n      for (uint256 index = 0; index < nextOfferId; index++) {\n        if (getTime() >= offers[index].deadline && offers[index].deadline != 0) {\n          cancelOffer(index);\n\n          assert(offers[index].active == false);\n        }\n      }\n    }\n\n    function setMinimumFee(uint256 _minimumFee) public onlyOwner {\n      assert(_minimumFee > 0);\n\n      minimumFee = _minimumFee;\n    }\n\n    function getOffer(uint256 offerId) public view returns (MBOffer memory) {\n      return offers[offerId];\n    }\n\n    function getAllOffers() public view returns (MBOffer[] memory) {\n      MBOffer[] memory openOffers = new MBOffer[](nextOfferId);\n\n      for (uint256 index = 0; index < nextOfferId; index++) {\n        if (offers[index].active == true) {\n          openOffers[index] = offers[index];\n        }\n      }\n\n      return openOffers;\n    }\n\n    function price(uint256 amountAlice, uint256 offerAmountAlice, uint256 offerAmountBob) public pure returns (uint256) {\n      uint256 numerator = amountAlice.mul(offerAmountBob);\n      uint256 denominator = offerAmountAlice;\n      return numerator / denominator;\n    }\n\n    function createOffer(address tokenAlice, address[] calldata tokenBob, uint256 amountAlice, uint256[] calldata amountBob, uint256[] calldata fees, uint256[] calldata offerParameters) public payable returns (uint256) {\n      uint256 feeAlice = fees[0];\n      uint256 feeBob = fees[1];\n      \n      assert(tokenAlice != address(0));\n      for (uint256 index = 0; index < tokenBob.length; index++) {\n        assert(tokenBob[index] != address(0));\n      }\n\n      assert(feeAlice + feeBob >= minimumFee);\n      \n      MBOffer memory offer = initOffer(tokenAlice, tokenBob, amountAlice, amountBob, fees);\n      offer = setOfferProperties(offer, offerParameters);\n\n      uint256 offerId = nextOfferId;\n      offers[offerId] = offer;\n\n      require(offer.tokenAlice.transferFrom(msg.sender, address(this), amountAlice));\n\n      nextOfferId ++;\n\n      emit OfferCreated(offerId, offer);\n\n      return offerId;\n    }\n\n    function setOfferProperties (MBOffer memory offer, uint256[] calldata offerParameters) private view returns (MBOffer memory) {\n\n      // MBOffer storage offer = offers[offerId];\n\n      assert(offer.amountAlice >= offerParameters[0]);\n      assert(getTime() < offerParameters[1] || offerParameters[1] == 0);\n\n      offer.offerType = getOfferType(offer.amountAlice, offerParameters);\n\n      offer.smallestChunkSize = offerParameters[0];\n\n      if (offerParameters[2] == 1) {\n        offer.capabilities[0] = true;\n      }\n\n      if (offerParameters[3] == 1) {\n        offer.capabilities[1] = true;\n      }\n\n      if (offerParameters.length == 5) {\n        offer.minimumSize = offerParameters[4];\n      } else {\n        offer.minimumSize = 0;\n      }\n\n      offer.deadline = offerParameters[1];\n\n      // offers[offerId] = offer;\n      return offer;\n    }\n\n    function getOfferType (uint256 amountAlice, uint256[] calldata offerParameters) private pure returns (OfferType) {\n      OfferType offerType;\n\n      if (offerParameters.length == 4) {\n        if (offerParameters[1] > 0 && offerParameters[1] > 0 && offerParameters[1] != amountAlice) {\n          offerType = OfferType.LimitedTimeChunkedPurchase;\n        } else if (offerParameters[0] > 0 && offerParameters[0] != amountAlice) {\n          offerType = OfferType.ChunkedPurchase;\n        } else if (offerParameters[1] > 0) {\n          offerType = OfferType.LimitedTime;\n        } else {\n          offerType = OfferType.FullPurchase;\n        }\n      } else if (offerParameters.length == 5) {\n        if (offerParameters[0] > 0 && offerParameters[1] > 0 && offerParameters[0] != amountAlice) {\n          offerType = OfferType.LimitedTimeMinimumChunkedPurchase;\n        } else if (offerParameters[0] > 0 && offerParameters[0] != amountAlice) {\n          offerType = OfferType.MinimumChunkedPurchase;\n        } else if (offerParameters[1] > 0) {\n          offerType = OfferType.LimitedTimeMinimumPurchase;\n        } else {\n          offerType = OfferType.MinimumChunkedPurchase;\n        }\n      }\n\n      return offerType;\n    }\n\n    function initOffer(address tokenAlice, address[] calldata tokenBob, uint256 amountAlice, uint256[] calldata amountBob, uint256[] calldata fees) private view returns (MBOffer memory) {\n      \n      MBOffer memory offer;\n\n      offer.offerId = nextOfferId;\n\n      offer.tokenAlice = IERC20(tokenAlice);\n      offer.tokenBob = tokenBob;\n\n      offer.amountAlice = amountAlice;\n      offer.amountBob = amountBob;\n\n      offer.feeAlice = fees[0];\n      offer.feeBob = fees[1];\n\n      offer.amountRemaining = amountAlice;\n\n      offer.minimumOrderTokens = new address[](0);\n      offer.minimumOrderAddresses = new address[](0);\n      offer.minimumOrderAmountsAlice = new uint256[](0);\n      offer.minimumOrderAmountsBob = new uint256[](0);\n      \n      offer.offerer = msg.sender;\n      offer.payoutAddress = msg.sender;\n      offer.capabilities = new bool[](2);\n\n      offer.active = true;\n\n      return offer;\n    }\n\n    function cancelOffer(uint256 offerId) public payable returns (uint256) {\n      MBOffer storage offer = offers[offerId];\n\n      assert(offer.capabilities[1] == true);\n      assert(msg.sender == offer.offerer);\n      assert(offer.active == true);\n      assert(offer.amountAlice > 0);\n\n      if (offer.offerType == OfferType.MinimumChunkedPurchase || \n        offer.offerType == OfferType.LimitedTimeMinimumPurchase || \n        offer.offerType == OfferType.LimitedTimeMinimumChunkedPurchase) \n      {\n        for (uint256 index = 0; index < offer.minimumOrderAddresses.length; index++) {\n          assert(offer.minimumOrderTokens[index] != address(0));\n          assert(offer.minimumOrderAddresses[index] != address(0));\n          assert(offer.minimumOrderAmountsBob[index] != 0);\n          \n          require(IERC20(offer.minimumOrderTokens[index]).transfer(offer.minimumOrderAddresses[index], offer.minimumOrderAmountsBob[index]));\n        }\n\n        require(offer.tokenAlice.transfer(offer.offerer, offer.amountAlice));\n      } else {\n        require(offer.tokenAlice.transfer(offer.offerer, offer.amountRemaining));\n      }\n\n      delete offers[offerId];\n\n      assert(offers[offerId].active == false);\n      assert(offers[offerId].amountAlice == 0);\n      assert(offers[offerId].offerer == address(0));\n\n      emit OfferCancelled(offerId, offer);\n\n      return offerId;\n    }\n\n    function changeOfferPrice(uint256 offerId, address[] calldata tokenBob, uint256[] calldata amountBob) public payable returns (uint256) {\n      assert(tokenBob.length == amountBob.length);\n\n      for (uint256 index = 0; index < tokenBob.length; index++) {\n        assert(tokenBob[index] != address(0));\n        assert(amountBob[index] > 0);\n      }\n\n      assert(offerId <= nextOfferId);\n\n      MBOffer storage offer = offers[offerId];\n      assert(offer.capabilities[0] == true);\n\n      assert(offer.offerer == msg.sender);\n\n      offer.tokenBob = tokenBob;\n      offer.amountBob = amountBob;\n\n      offers[offerId] = offer;\n\n      emit OfferModified(offerId, offer);\n\n      return offerId;\n\n    }\n\n    function changeOfferPricePart(uint256 offerId, address[] calldata tokenBob, uint256[] calldata amountBob, uint256 smallestChunkSize) public payable returns (uint256) {\n      assert(tokenBob.length == amountBob.length);\n\n      for (uint256 index = 0; index < tokenBob.length; index++) {\n        assert(tokenBob[index] != address(0));\n        assert(amountBob[index] > 0);\n      }\n\n      assert(offerId <= nextOfferId);\n\n      MBOffer storage offer = offers[offerId];\n\n      assert(offer.capabilities[0] == true);\n\n      assert(offer.offerer == msg.sender);\n      assert(smallestChunkSize <= offer.amountAlice);\n\n      offer.tokenBob = tokenBob;\n      offer.amountBob = amountBob;\n      offer.smallestChunkSize = smallestChunkSize;\n\n      offers[offerId] = offer;\n\n      emit OfferModified(offerId, offer);\n\n      return offerId;\n    }\n\n    function acceptOffer(uint256 offerId, address tokenBob, uint256 amountBob) public payable returns (uint256) {\n      MBOffer storage offer = offers[offerId];\n\n      assert(tokenBob != address(0));\n      assert(offer.active == true);\n      assert(getTime() < offer.deadline || offer.deadline == 0);\n\n      address acceptedTokenBob = address(0);\n      uint256 acceptedAmountBob = 0;\n      for (uint256 index = 0; index < offer.tokenBob.length; index++) {\n        if (offer.tokenBob[index] == tokenBob && offer.amountBob[index] == amountBob) {\n          acceptedTokenBob = offer.tokenBob[index];\n          acceptedAmountBob = offer.amountBob[index];\n        }\n      }\n\n      assert(acceptedTokenBob == tokenBob);\n      assert(acceptedAmountBob == amountBob);\n\n      uint256 amountAfterFeeAlice = offer.amountRemaining.mul(1000-offer.feeAlice) / 1000;\n      uint256 amountAfterFeeBob = acceptedAmountBob.mul(1000-offer.feeBob) / 1000;\n      uint256 amountFeeDex = acceptedAmountBob - amountAfterFeeBob;\n      assert(amountFeeDex > 0);\n\n      require(IERC20(acceptedTokenBob).transferFrom(msg.sender, offer.payoutAddress, amountAfterFeeBob));\n      require(offer.tokenAlice.transfer(msg.sender, amountAfterFeeAlice));\n      require(IERC20(acceptedTokenBob).transferFrom(msg.sender, address(this), amountFeeDex));\n      \n      delete offers[offerId];\n\n      assert(offers[offerId].active == false);\n      assert(offers[offerId].amountAlice == 0);\n      assert(offers[offerId].offerer == address(0));\n\n      emit OfferAccepted(offerId, offer);\n\n      return offerId;\n    }\n\n    function acceptOfferPart(uint256 offerId, address tokenBob, uint256 amountBob) public payable returns (uint256) {\n      MBOffer storage offer = offers[offerId];\n\n      assert(tokenBob != address(0));\n      assert(offer.active == true);\n      assert(getTime() < offer.deadline || offer.deadline == 0);\n      assert(offer.offerType == OfferType.ChunkedPurchase || \n        offer.offerType == OfferType.LimitedTimeChunkedPurchase || \n        offer.offerType == OfferType.LimitedTimeMinimumChunkedPurchase || \n        offer.offerType == OfferType.MinimumChunkedPurchase);\n\n      address acceptedTokenBob = address(0);\n      uint256 acceptedAmountBob = 0;\n      for (uint256 index = 0; index < offer.tokenBob.length; index++) {\n        if (offer.tokenBob[index] == tokenBob) {\n          acceptedTokenBob = offer.tokenBob[index];\n          acceptedAmountBob = offer.amountBob[index];\n        }\n      }\n\n      uint256 partialAmountAlice = price(amountBob, acceptedAmountBob, offer.amountAlice);\n      uint256 partialAmountBob = price(partialAmountAlice, offer.amountAlice, acceptedAmountBob);\n\n      uint256 amountAfterFeeAlice = partialAmountAlice.mul(1000-offer.feeAlice) / 1000;\n      uint256 amountAfterFeeBob = partialAmountBob.mul(1000-offer.feeBob) / 1000;\n      uint256 amountFeeDex = partialAmountBob - amountAfterFeeBob;\n\n      assert(amountAfterFeeBob >= 0);\n      assert(amountFeeDex > 0);\n\n      assert(amountAfterFeeAlice >= offer.smallestChunkSize);\n      assert(amountAfterFeeAlice <= offer.amountRemaining);\n\n      require(IERC20(acceptedTokenBob).transferFrom(msg.sender, offer.payoutAddress, amountAfterFeeBob));\n      require(IERC20(acceptedTokenBob).transferFrom(msg.sender, address(this), amountFeeDex));\n      require(offer.tokenAlice.transfer(msg.sender, amountAfterFeeAlice));\n\n      offers[offerId].amountRemaining -= partialAmountAlice;\n\n      if (offers[offerId].amountRemaining == 0) {\n        delete offers[offerId];\n\n        assert(offers[offerId].active == false);\n        assert(offers[offerId].amountAlice == 0);\n        assert(offers[offerId].amountRemaining == 0);\n        assert(offers[offerId].offerer == address(0));\n\n        emit OfferAccepted(offerId, offer);\n      } else {\n        emit OfferPartiallyAccepted(offerId, offers[offerId]);\n      }\n\n      return offerId;\n    }\n\n    function acceptOfferPartWithMinimum(uint256 offerId, address tokenBob, uint256 amountBob) public payable returns (uint256) {\n      MBOffer storage offer = offers[offerId];\n\n      assert(tokenBob != address(0));\n      assert(offer.active == true);\n      assert(getTime() < offer.deadline || offer.deadline == 0);\n      assert(offer.offerType == OfferType.MinimumChunkedPurchase || \n        offer.offerType == OfferType.LimitedTimeMinimumPurchase || \n        offer.offerType == OfferType.LimitedTimeMinimumChunkedPurchase);\n\n      address acceptedTokenBob = address(0);\n      uint256 acceptedAmountBob = 0;\n      for (uint256 index = 0; index < offer.tokenBob.length; index++) {\n        if (offer.tokenBob[index] == tokenBob) {\n          acceptedTokenBob = offer.tokenBob[index];\n          acceptedAmountBob = offer.amountBob[index];\n        }\n      }\n\n      uint256 partialAmountAlice = price(amountBob, acceptedAmountBob, offer.amountAlice);\n      uint256 partialAmountBob = price(partialAmountAlice, offer.amountAlice, acceptedAmountBob);\n\n      uint256 amountAfterFeeAlice = partialAmountAlice.mul(1000-offer.feeAlice) / 1000;\n      uint256 amountAfterFeeBob = partialAmountBob.mul(1000-offer.feeBob) / 1000;\n\n      assert(acceptedTokenBob == tokenBob);\n\n      assert(partialAmountBob >= 0);\n\n      assert(partialAmountAlice >= offer.smallestChunkSize);\n      assert(partialAmountAlice <= offer.amountRemaining);\n      \n      offers[offerId].amountRemaining -= partialAmountBob;\n\n      uint256 tokensSold = offer.amountAlice - offer.amountRemaining;\n\n      if (tokensSold >= offer.minimumSize) {\n        require(IERC20(acceptedTokenBob).transferFrom(msg.sender, offer.payoutAddress, amountAfterFeeBob));\n        require(offer.tokenAlice.transfer(msg.sender, amountAfterFeeAlice));\n        require(IERC20(acceptedTokenBob).transferFrom(msg.sender, address(this), partialAmountBob - amountAfterFeeBob));\n        \n        uint256 acceptedAmountAfterFeeAlice;\n        uint256 acceptedAmountAfterFeeBob;\n        for (uint256 index = 0; index < offer.minimumOrderAddresses.length; index++) {\n          acceptedAmountAfterFeeAlice = offer.minimumOrderAmountsAlice[index].mul(1000-offer.feeAlice) / 1000;\n          acceptedAmountAfterFeeBob = offer.minimumOrderAmountsBob[index].mul(1000-offer.feeBob) / 1000;\n          require(IERC20(offer.minimumOrderTokens[index]).transferFrom(address(this), offer.payoutAddress, acceptedAmountAfterFeeAlice));\n          require(offer.tokenAlice.transfer(offer.minimumOrderAddresses[index], acceptedAmountAfterFeeBob));\n        }\n\n        delete offers[offerId].minimumOrderAddresses;\n        delete offers[offerId].minimumOrderAmountsBob;\n        delete offers[offerId].minimumOrderAmountsAlice;\n        delete offers[offerId].minimumOrderTokens;\n\n      } else {\n        require(IERC20(acceptedTokenBob).transferFrom(msg.sender, address(this), partialAmountBob));\n\n        uint256 chunkAlicedex = offer.minimumOrderAddresses.length;\n\n        if (chunkAlicedex > 0) {\n          chunkAlicedex -= 1;\n        }\n\n        offers[offerId].minimumOrderAddresses.push(msg.sender);\n        offers[offerId].minimumOrderAmountsBob.push(partialAmountBob);\n        offers[offerId].minimumOrderAmountsAlice.push(partialAmountAlice);\n        offers[offerId].minimumOrderTokens.push(acceptedTokenBob);\n\n        assert(offer.minimumOrderAmountsBob.length == chunkAlicedex + 1);\n        assert(offer.minimumOrderAmountsAlice.length == chunkAlicedex + 1);\n        assert(offer.minimumOrderAddresses.length == chunkAlicedex + 1);\n        assert(offer.minimumOrderTokens.length == chunkAlicedex + 1);\n      }\n\n      if (offers[offerId].amountRemaining == 0) {\n        delete offers[offerId];\n\n        assert(offers[offerId].active == false);\n        assert(offers[offerId].amountAlice == 0);\n        assert(offers[offerId].amountRemaining == 0);\n        assert(offers[offerId].offerer == address(0));\n\n        emit OfferAccepted(offerId, offer);\n      } else {\n        emit OfferPartiallyAccepted(offerId, offers[offerId]);\n      }\n\n      return offerId;\n    }\n\n}\n",
  "sourcePath": "/home/someone/code/contracts-v2/contracts/MarsBaseExchange.sol",
  "compiler": {
    "name": "solc",
    "version": "0.8.10+commit.fc410830.Emscripten.clang"
  },
  "schemaVersion": "3.4.3",
  "updatedAt": "2021-12-27T05:08:11.126Z",
  "devdoc": {
    "kind": "dev",
    "methods": {
      "owner()": {
        "details": "Returns the address of the current owner."
      },
      "renounceOwnership()": {
        "details": "Leaves the contract without owner. It will not be possible to call `onlyOwner` functions anymore. Can only be called by the current owner. NOTE: Renouncing ownership will leave the contract without an owner, thereby removing any functionality that is only available to the owner."
      },
      "transferOwnership(address)": {
        "details": "Transfers ownership of the contract to a new account (`newOwner`). Can only be called by the current owner."
      }
    },
    "version": 1
  },
  "userdoc": {
    "kind": "user",
    "methods": {},
    "version": 1
  }
}